{
  "_format": "hh-sol-artifact-1",
  "contractName": "AESPoolrEtherV2",
  "sourceName": "contracts/AESrEtherv2.sol",
  "abi": [
    {
      "inputs": [],
      "stateMutability": "nonpayable",
      "type": "constructor"
    },
    {
      "anonymous": false,
      "inputs": [
        {
          "indexed": false,
          "internalType": "address",
          "name": "user",
          "type": "address"
        },
        {
          "indexed": false,
          "internalType": "uint256",
          "name": "value",
          "type": "uint256"
        }
      ],
      "name": "WithdrawFail",
      "type": "event"
    },
    {
      "inputs": [],
      "name": "APR",
      "outputs": [
        {
          "internalType": "uint256",
          "name": "",
          "type": "uint256"
        }
      ],
      "stateMutability": "view",
      "type": "function"
    },
    {
      "inputs": [
        {
          "internalType": "uint256",
          "name": "_percent",
          "type": "uint256"
        },
        {
          "internalType": "uint256",
          "name": "_number",
          "type": "uint256"
        }
      ],
      "name": "FindPercentage",
      "outputs": [
        {
          "internalType": "uint256",
          "name": "result",
          "type": "uint256"
        }
      ],
      "stateMutability": "pure",
      "type": "function"
    },
    {
      "inputs": [
        {
          "internalType": "uint256",
          "name": "_a",
          "type": "uint256"
        },
        {
          "internalType": "uint256",
          "name": "_b",
          "type": "uint256"
        }
      ],
      "name": "FindPercentageOfAinB",
      "outputs": [
        {
          "internalType": "uint256",
          "name": "result",
          "type": "uint256"
        }
      ],
      "stateMutability": "pure",
      "type": "function"
    },
    {
      "inputs": [],
      "name": "Stake",
      "outputs": [],
      "stateMutability": "payable",
      "type": "function"
    },
    {
      "inputs": [
        {
          "internalType": "address",
          "name": "_stakeholder",
          "type": "address"
        }
      ],
      "name": "calculateReward",
      "outputs": [
        {
          "internalType": "uint256",
          "name": "",
          "type": "uint256"
        }
      ],
      "stateMutability": "view",
      "type": "function"
    },
    {
      "inputs": [
        {
          "internalType": "uint256",
          "name": "percent",
          "type": "uint256"
        }
      ],
      "name": "changeDepositFee",
      "outputs": [],
      "stateMutability": "nonpayable",
      "type": "function"
    },
    {
      "inputs": [
        {
          "internalType": "uint256",
          "name": "percent",
          "type": "uint256"
        }
      ],
      "name": "changeDistributionPercentage",
      "outputs": [],
      "stateMutability": "nonpayable",
      "type": "function"
    },
    {
      "inputs": [],
      "name": "custodian",
      "outputs": [
        {
          "internalType": "address",
          "name": "",
          "type": "address"
        }
      ],
      "stateMutability": "view",
      "type": "function"
    },
    {
      "inputs": [],
      "name": "custodianFees",
      "outputs": [
        {
          "internalType": "uint256",
          "name": "",
          "type": "uint256"
        }
      ],
      "stateMutability": "view",
      "type": "function"
    },
    {
      "inputs": [],
      "name": "depositFee",
      "outputs": [
        {
          "internalType": "uint256",
          "name": "",
          "type": "uint256"
        }
      ],
      "stateMutability": "view",
      "type": "function"
    },
    {
      "inputs": [
        {
          "internalType": "uint256",
          "name": "amount",
          "type": "uint256"
        }
      ],
      "name": "depositRewards",
      "outputs": [],
      "stateMutability": "nonpayable",
      "type": "function"
    },
    {
      "inputs": [],
      "name": "distributeRewards",
      "outputs": [],
      "stateMutability": "nonpayable",
      "type": "function"
    },
    {
      "inputs": [],
      "name": "distributionPercentage",
      "outputs": [
        {
          "internalType": "uint256",
          "name": "",
          "type": "uint256"
        }
      ],
      "stateMutability": "view",
      "type": "function"
    },
    {
      "inputs": [
        {
          "internalType": "address",
          "name": "_address",
          "type": "address"
        }
      ],
      "name": "isStakeholder",
      "outputs": [
        {
          "internalType": "bool",
          "name": "",
          "type": "bool"
        },
        {
          "internalType": "uint256",
          "name": "",
          "type": "uint256"
        }
      ],
      "stateMutability": "view",
      "type": "function"
    },
    {
      "inputs": [],
      "name": "name",
      "outputs": [
        {
          "internalType": "string",
          "name": "",
          "type": "string"
        }
      ],
      "stateMutability": "view",
      "type": "function"
    },
    {
      "inputs": [],
      "name": "removeStake",
      "outputs": [],
      "stateMutability": "nonpayable",
      "type": "function"
    },
    {
      "inputs": [
        {
          "internalType": "uint256",
          "name": "amount",
          "type": "uint256"
        }
      ],
      "name": "resetCustodianFees",
      "outputs": [],
      "stateMutability": "nonpayable",
      "type": "function"
    },
    {
      "inputs": [
        {
          "internalType": "address",
          "name": "addr",
          "type": "address"
        },
        {
          "internalType": "uint256",
          "name": "amount",
          "type": "uint256"
        }
      ],
      "name": "resetReward",
      "outputs": [],
      "stateMutability": "nonpayable",
      "type": "function"
    },
    {
      "inputs": [
        {
          "internalType": "address",
          "name": "_stakeholder",
          "type": "address"
        }
      ],
      "name": "rewardOf",
      "outputs": [
        {
          "internalType": "uint256",
          "name": "",
          "type": "uint256"
        }
      ],
      "stateMutability": "view",
      "type": "function"
    },
    {
      "inputs": [],
      "name": "rewardToken",
      "outputs": [
        {
          "internalType": "address",
          "name": "",
          "type": "address"
        }
      ],
      "stateMutability": "view",
      "type": "function"
    },
    {
      "inputs": [],
      "name": "rewardTokenHoldingAmount",
      "outputs": [
        {
          "internalType": "uint256",
          "name": "",
          "type": "uint256"
        }
      ],
      "stateMutability": "view",
      "type": "function"
    },
    {
      "inputs": [
        {
          "internalType": "address",
          "name": "",
          "type": "address"
        }
      ],
      "name": "rewards",
      "outputs": [
        {
          "internalType": "uint256",
          "name": "",
          "type": "uint256"
        }
      ],
      "stateMutability": "view",
      "type": "function"
    },
    {
      "inputs": [
        {
          "internalType": "uint256",
          "name": "amount",
          "type": "uint256"
        }
      ],
      "name": "setAPR",
      "outputs": [],
      "stateMutability": "nonpayable",
      "type": "function"
    },
    {
      "inputs": [
        {
          "internalType": "address",
          "name": "addr",
          "type": "address"
        }
      ],
      "name": "setRewardTokenAddress",
      "outputs": [],
      "stateMutability": "nonpayable",
      "type": "function"
    },
    {
      "inputs": [
        {
          "internalType": "address",
          "name": "_stakeholder",
          "type": "address"
        }
      ],
      "name": "stakeOf",
      "outputs": [
        {
          "internalType": "uint256",
          "name": "",
          "type": "uint256"
        }
      ],
      "stateMutability": "view",
      "type": "function"
    },
    {
      "inputs": [
        {
          "internalType": "uint256",
          "name": "",
          "type": "uint256"
        }
      ],
      "name": "stakers",
      "outputs": [
        {
          "internalType": "address",
          "name": "",
          "type": "address"
        }
      ],
      "stateMutability": "view",
      "type": "function"
    },
    {
      "inputs": [
        {
          "internalType": "address",
          "name": "",
          "type": "address"
        }
      ],
      "name": "stakingBalance",
      "outputs": [
        {
          "internalType": "uint256",
          "name": "",
          "type": "uint256"
        }
      ],
      "stateMutability": "view",
      "type": "function"
    },
    {
      "inputs": [],
      "name": "totalRewards",
      "outputs": [
        {
          "internalType": "uint256",
          "name": "",
          "type": "uint256"
        }
      ],
      "stateMutability": "view",
      "type": "function"
    },
    {
      "inputs": [],
      "name": "totalStakes",
      "outputs": [
        {
          "internalType": "uint256",
          "name": "",
          "type": "uint256"
        }
      ],
      "stateMutability": "view",
      "type": "function"
    },
    {
      "inputs": [],
      "name": "withdrawFees",
      "outputs": [],
      "stateMutability": "nonpayable",
      "type": "function"
    },
    {
      "inputs": [],
      "name": "withdrawReward",
      "outputs": [],
      "stateMutability": "nonpayable",
      "type": "function"
    },
    {
      "inputs": [],
      "name": "withdrawRewards",
      "outputs": [],
      "stateMutability": "nonpayable",
      "type": "function"
    },
    {
      "stateMutability": "payable",
      "type": "receive"
    }
  ],
  "bytecode": "0x60806040526040518060600160405280602381526020016200314e60239139600190805190602001906200003592919062000112565b50735ac3ceee2c3e6790cadd6707deb2e87ea83b0631600560006101000a81548173ffffffffffffffffffffffffffffffffffffffff021916908373ffffffffffffffffffffffffffffffffffffffff1602179055506000600755670de0b6b3a76400006000620000a79190620001c2565b60085560016009556101f4600a55348015620000c257600080fd5b50600160008190555033600660006101000a81548173ffffffffffffffffffffffffffffffffffffffff021916908373ffffffffffffffffffffffffffffffffffffffff160217905550620002c1565b82805462000120906200022d565b90600052602060002090601f01602090048101928262000144576000855562000190565b82601f106200015f57805160ff191683800117855562000190565b8280016001018555821562000190579182015b828111156200018f57825182559160200191906001019062000172565b5b5090506200019f9190620001a3565b5090565b5b80821115620001be576000816000905550600101620001a4565b5090565b6000620001cf8262000223565b9150620001dc8362000223565b9250817fffffffffffffffffffffffffffffffffffffffffffffffffffffffffffffffff048311821515161562000218576200021762000263565b5b828202905092915050565b6000819050919050565b600060028204905060018216806200024657607f821691505b602082108114156200025d576200025c62000292565b5b50919050565b7f4e487b7100000000000000000000000000000000000000000000000000000000600052601160045260246000fd5b7f4e487b7100000000000000000000000000000000000000000000000000000000600052602260045260246000fd5b612e7d80620002d16000396000f3fe6080604052600436106101e75760003560e01c80638dd9bae311610102578063c885bc5811610095578063ef037b9011610064578063ef037b901461077f578063f0102fae146107bd578063f7c618c1146107fa578063fd5e6dd114610825576102ed565b8063c885bc58146106f8578063d82e39621461070f578063de20bc921461074c578063e88d956714610756576102ed565b8063bd30558e116100d1578063bd30558e14610662578063bf9befb11461068d578063c18e9f48146106b8578063c7b8981c146106e1576102ed565b80638dd9bae3146105cc57806390872cc0146105f75780639a6acf20146106225780639c91b7791461064b576102ed565b806345bc78ab1161017a5780636f4a2cd0116101495780636f4a2cd0146105265780638068b9a31461053d578063854303cf1461057a5780638bdf67f2146105a3576102ed565b806345bc78ab1461047e578063476343ee146104bb5780635c73395e146104d257806367a52793146104fb576102ed565b80631d62ebd9116101b65780631d62ebd9146103ae5780632c878c68146103eb578063375b74c3146104165780634262336014610441576102ed565b806306fdde03146102f25780630700037d1461031d5780630cc6ec1c1461035a5780630e15561a14610383576102ed565b366102ed5760026000541415610232576040517f08c379a00000000000000000000000000000000000000000000000000000000081526004016102299061294b565b60405180910390fd5b60026000819055506000600660009054906101000a900473ffffffffffffffffffffffffffffffffffffffff1673ffffffffffffffffffffffffffffffffffffffff163460405161028290612767565b60006040518083038185875af1925050503d80600081146102bf576040519150601f19603f3d011682016040523d82523d6000602084013e6102c4565b606091505b50509050806102e25734600b546102db91906129ad565b600b819055505b506001600081905550005b600080fd5b3480156102fe57600080fd5b50610307610862565b6040516103149190612849565b60405180910390f35b34801561032957600080fd5b50610344600480360381019061033f919061249b565b6108f0565b604051610351919061296b565b60405180910390f35b34801561036657600080fd5b50610381600480360381019061037c9190612529565b610908565b005b34801561038f57600080fd5b5061039861096c565b6040516103a5919061296b565b60405180910390f35b3480156103ba57600080fd5b506103d560048036038101906103d0919061249b565b610a50565b6040516103e2919061296b565b60405180910390f35b3480156103f757600080fd5b50610400610a99565b60405161040d919061296b565b60405180910390f35b34801561042257600080fd5b5061042b610a9f565b604051610438919061277c565b60405180910390f35b34801561044d57600080fd5b506104686004803603810190610463919061249b565b610ac5565b604051610475919061296b565b60405180910390f35b34801561048a57600080fd5b506104a560048036038101906104a0919061249b565b610b0e565b6040516104b2919061296b565b60405180910390f35b3480156104c757600080fd5b506104d0610b26565b005b3480156104de57600080fd5b506104f960048036038101906104f49190612529565b610c78565b005b34801561050757600080fd5b50610510610d2d565b60405161051d919061296b565b60405180910390f35b34801561053257600080fd5b5061053b610d33565b005b34801561054957600080fd5b50610564600480360381019061055f919061257b565b610ece565b604051610571919061296b565b60405180910390f35b34801561058657600080fd5b506105a1600480360381019061059c9190612529565b610ef1565b005b3480156105af57600080fd5b506105ca60048036038101906105c59190612529565b610f55565b005b3480156105d857600080fd5b506105e16110c6565b6040516105ee919061296b565b60405180910390f35b34801561060357600080fd5b5061060c6110cc565b604051610619919061296b565b60405180910390f35b34801561062e57600080fd5b506106496004803603810190610644919061249b565b6110d2565b005b34801561065757600080fd5b50610660611170565b005b34801561066e57600080fd5b50610677611364565b604051610684919061296b565b60405180910390f35b34801561069957600080fd5b506106a261136a565b6040516106af919061296b565b60405180910390f35b3480156106c457600080fd5b506106df60048036038101906106da91906124c4565b61144e565b005b3480156106ed57600080fd5b506106f66114f0565b005b34801561070457600080fd5b5061070d6119ab565b005b34801561071b57600080fd5b506107366004803603810190610731919061249b565b611d37565b604051610743919061296b565b60405180910390f35b610754611ddc565b005b34801561076257600080fd5b5061077d60048036038101906107789190612529565b612022565b005b34801561078b57600080fd5b506107a660048036038101906107a1919061249b565b6120d7565b6040516107b4929190612820565b60405180910390f35b3480156107c957600080fd5b506107e460048036038101906107df919061257b565b6121b1565b6040516107f1919061296b565b60405180910390f35b34801561080657600080fd5b5061080f6121e6565b60405161081c919061277c565b60405180910390f35b34801561083157600080fd5b5061084c60048036038101906108479190612529565b61220c565b604051610859919061277c565b60405180910390f35b6001805461086f90612b4f565b80601f016020809104026020016040519081016040528092919081815260200182805461089b90612b4f565b80156108e85780601f106108bd576101008083540402835291602001916108e8565b820191906000526020600020905b8154815290600101906020018083116108cb57829003601f168201915b505050505081565b60046020528060005260406000206000915090505481565b600660009054906101000a900473ffffffffffffffffffffffffffffffffffffffff1673ffffffffffffffffffffffffffffffffffffffff163373ffffffffffffffffffffffffffffffffffffffff161461096257600080fd5b80600b8190555050565b6000806000905060005b600280549050811015610a485760046000600283815481106109c1577f4e487b7100000000000000000000000000000000000000000000000000000000600052603260045260246000fd5b9060005260206000200160009054906101000a900473ffffffffffffffffffffffffffffffffffffffff1673ffffffffffffffffffffffffffffffffffffffff1673ffffffffffffffffffffffffffffffffffffffff1681526020019081526020016000205482610a3291906129ad565b9150600181610a4191906129ad565b9050610976565b508091505090565b6000600460008373ffffffffffffffffffffffffffffffffffffffff1673ffffffffffffffffffffffffffffffffffffffff168152602001908152602001600020549050919050565b60085481565b600660009054906101000a900473ffffffffffffffffffffffffffffffffffffffff1681565b6000600360008373ffffffffffffffffffffffffffffffffffffffff1673ffffffffffffffffffffffffffffffffffffffff168152602001908152602001600020549050919050565b60036020528060005260406000206000915090505481565b60026000541415610b6c576040517f08c379a0000000000000000000000000000000000000000000000000000000008152600401610b639061294b565b60405180910390fd5b6002600081905550600660009054906101000a900473ffffffffffffffffffffffffffffffffffffffff1673ffffffffffffffffffffffffffffffffffffffff163373ffffffffffffffffffffffffffffffffffffffff1614610bce57600080fd5b6000600660009054906101000a900473ffffffffffffffffffffffffffffffffffffffff1673ffffffffffffffffffffffffffffffffffffffff16600b54604051610c1890612767565b60006040518083038185875af1925050503d8060008114610c55576040519150601f19603f3d011682016040523d82523d6000602084013e610c5a565b606091505b505090508015610c6d576000600b819055505b506001600081905550565b600660009054906101000a900473ffffffffffffffffffffffffffffffffffffffff1673ffffffffffffffffffffffffffffffffffffffff163373ffffffffffffffffffffffffffffffffffffffff1614610cd257600080fd5b806127101015610d17576040517f08c379a0000000000000000000000000000000000000000000000000000000008152600401610d0e9061290b565b60405180910390fd5b606481610d249190612a34565b60098190555050565b600a5481565b600660009054906101000a900473ffffffffffffffffffffffffffffffffffffffff1673ffffffffffffffffffffffffffffffffffffffff163373ffffffffffffffffffffffffffffffffffffffff1614610d8d57600080fd5b60005b600280549050811015610ecb57600060028281548110610dd9577f4e487b7100000000000000000000000000000000000000000000000000000000600052603260045260246000fd5b9060005260206000200160009054906101000a900473ffffffffffffffffffffffffffffffffffffffff1690506000610e1182611d37565b905080600460008473ffffffffffffffffffffffffffffffffffffffff1673ffffffffffffffffffffffffffffffffffffffff16815260200190815260200160002054610e5e91906129ad565b600460008473ffffffffffffffffffffffffffffffffffffffff1673ffffffffffffffffffffffffffffffffffffffff1681526020019081526020016000208190555080600854610eaf9190612a8e565b6008819055505050600181610ec491906129ad565b9050610d90565b50565b60006127108383610edf9190612a34565b610ee99190612a03565b905092915050565b600660009054906101000a900473ffffffffffffffffffffffffffffffffffffffff1673ffffffffffffffffffffffffffffffffffffffff163373ffffffffffffffffffffffffffffffffffffffff1614610f4b57600080fd5b8060078190555050565b600660009054906101000a900473ffffffffffffffffffffffffffffffffffffffff1673ffffffffffffffffffffffffffffffffffffffff163373ffffffffffffffffffffffffffffffffffffffff1614610faf57600080fd5b60008111610ff2576040517f08c379a0000000000000000000000000000000000000000000000000000000008152600401610fe99061288b565b60405180910390fd5b6000600560009054906101000a900473ffffffffffffffffffffffffffffffffffffffff1673ffffffffffffffffffffffffffffffffffffffff166323b872dd3330856040518463ffffffff1660e01b815260040161105393929190612797565b602060405180830381600087803b15801561106d57600080fd5b505af1158015611081573d6000803e3d6000fd5b505050506040513d601f19601f820116820180604052508101906110a59190612500565b905080156110c257816008546110bb91906129ad565b6008819055505b5050565b600b5481565b60095481565b600660009054906101000a900473ffffffffffffffffffffffffffffffffffffffff1673ffffffffffffffffffffffffffffffffffffffff163373ffffffffffffffffffffffffffffffffffffffff161461112c57600080fd5b80600560006101000a81548173ffffffffffffffffffffffffffffffffffffffff021916908373ffffffffffffffffffffffffffffffffffffffff16021790555050565b600260005414156111b6576040517f08c379a00000000000000000000000000000000000000000000000000000000081526004016111ad9061294b565b60405180910390fd5b600260008190555060003390506000600360008373ffffffffffffffffffffffffffffffffffffffff1673ffffffffffffffffffffffffffffffffffffffff1681526020019081526020016000205490506000811161124a576040517f08c379a0000000000000000000000000000000000000000000000000000000008152600401611241906128cb565b60405180910390fd5b6000600360008473ffffffffffffffffffffffffffffffffffffffff1673ffffffffffffffffffffffffffffffffffffffff168152602001908152602001600020819055506112988261224b565b60008273ffffffffffffffffffffffffffffffffffffffff16826040516112be90612767565b60006040518083038185875af1925050503d80600081146112fb576040519150601f19603f3d011682016040523d82523d6000602084013e611300565b606091505b50509050806113575781600b5461131791906129ad565b600b819055507f67079857ed5dbe37f84d8b9a528567e7fa47512439b74fb1f7c7d9b76ab4a34e838360405161134e9291906127f7565b60405180910390a15b5050506001600081905550565b60075481565b6000806000905060005b6002805490508110156114465760036000600283815481106113bf577f4e487b7100000000000000000000000000000000000000000000000000000000600052603260045260246000fd5b9060005260206000200160009054906101000a900473ffffffffffffffffffffffffffffffffffffffff1673ffffffffffffffffffffffffffffffffffffffff1673ffffffffffffffffffffffffffffffffffffffff168152602001908152602001600020548261143091906129ad565b915060018161143f91906129ad565b9050611374565b508091505090565b600660009054906101000a900473ffffffffffffffffffffffffffffffffffffffff1673ffffffffffffffffffffffffffffffffffffffff163373ffffffffffffffffffffffffffffffffffffffff16146114a857600080fd5b80600460008473ffffffffffffffffffffffffffffffffffffffff1673ffffffffffffffffffffffffffffffffffffffff168152602001908152602001600020819055505050565b600660009054906101000a900473ffffffffffffffffffffffffffffffffffffffff1673ffffffffffffffffffffffffffffffffffffffff163373ffffffffffffffffffffffffffffffffffffffff161461154a57600080fd5b60026000541415611590576040517f08c379a00000000000000000000000000000000000000000000000000000000081526004016115879061294b565b60405180910390fd5b60026000819055506000600560009054906101000a900473ffffffffffffffffffffffffffffffffffffffff1673ffffffffffffffffffffffffffffffffffffffff166370a08231306040518263ffffffff1660e01b81526004016115f5919061277c565b60206040518083038186803b15801561160d57600080fd5b505afa158015611621573d6000803e3d6000fd5b505050506040513d601f19601f820116820180604052508101906116459190612552565b90506000811161168a576040517f08c379a00000000000000000000000000000000000000000000000000000000081526004016116819061286b565b60405180910390fd5b600560009054906101000a900473ffffffffffffffffffffffffffffffffffffffff1673ffffffffffffffffffffffffffffffffffffffff1663095ea7b33060006040518363ffffffff1660e01b81526004016116e89291906127ce565b602060405180830381600087803b15801561170257600080fd5b505af1158015611716573d6000803e3d6000fd5b505050506040513d601f19601f8201168201806040525081019061173a9190612500565b50600560009054906101000a900473ffffffffffffffffffffffffffffffffffffffff1673ffffffffffffffffffffffffffffffffffffffff1663095ea7b330836040518363ffffffff1660e01b81526004016117989291906127f7565b602060405180830381600087803b1580156117b257600080fd5b505af11580156117c6573d6000803e3d6000fd5b505050506040513d601f19601f820116820180604052508101906117ea9190612500565b506000600560009054906101000a900473ffffffffffffffffffffffffffffffffffffffff1673ffffffffffffffffffffffffffffffffffffffff166323b872dd30600660009054906101000a900473ffffffffffffffffffffffffffffffffffffffff16856040518463ffffffff1660e01b815260040161186e93929190612797565b602060405180830381600087803b15801561188857600080fd5b505af115801561189c573d6000803e3d6000fd5b505050506040513d601f19601f820116820180604052508101906118c09190612500565b9050801561199f57600060088190555060005b60028054905081101561199d5760006004600060028481548110611920577f4e487b7100000000000000000000000000000000000000000000000000000000600052603260045260246000fd5b9060005260206000200160009054906101000a900473ffffffffffffffffffffffffffffffffffffffff1673ffffffffffffffffffffffffffffffffffffffff1673ffffffffffffffffffffffffffffffffffffffff1681526020019081526020016000208190555060018161199691906129ad565b90506118d3565b505b50506001600081905550565b600260005414156119f1576040517f08c379a00000000000000000000000000000000000000000000000000000000081526004016119e89061294b565b60405180910390fd5b600260008190555060003390506000600460008373ffffffffffffffffffffffffffffffffffffffff1673ffffffffffffffffffffffffffffffffffffffff16815260200190815260200160002054905060008111611a85576040517f08c379a0000000000000000000000000000000000000000000000000000000008152600401611a7c906128ab565b60405180910390fd5b6000600460008473ffffffffffffffffffffffffffffffffffffffff1673ffffffffffffffffffffffffffffffffffffffff16815260200190815260200160002081905550600560009054906101000a900473ffffffffffffffffffffffffffffffffffffffff1673ffffffffffffffffffffffffffffffffffffffff1663095ea7b33060006040518363ffffffff1660e01b8152600401611b289291906127ce565b602060405180830381600087803b158015611b4257600080fd5b505af1158015611b56573d6000803e3d6000fd5b505050506040513d601f19601f82011682018060405250810190611b7a9190612500565b50600560009054906101000a900473ffffffffffffffffffffffffffffffffffffffff1673ffffffffffffffffffffffffffffffffffffffff1663095ea7b330836040518363ffffffff1660e01b8152600401611bd89291906127f7565b602060405180830381600087803b158015611bf257600080fd5b505af1158015611c06573d6000803e3d6000fd5b505050506040513d601f19601f82011682018060405250810190611c2a9190612500565b506000600560009054906101000a900473ffffffffffffffffffffffffffffffffffffffff1673ffffffffffffffffffffffffffffffffffffffff166323b872dd3085856040518463ffffffff1660e01b8152600401611c8c93929190612797565b602060405180830381600087803b158015611ca657600080fd5b505af1158015611cba573d6000803e3d6000fd5b505050506040513d601f19601f82011682018060405250810190611cde9190612500565b905080611d2a5781600460008573ffffffffffffffffffffffffffffffffffffffff1673ffffffffffffffffffffffffffffffffffffffff168152602001908152602001600020819055505b5050506001600081905550565b600080600360008473ffffffffffffffffffffffffffffffffffffffff1673ffffffffffffffffffffffffffffffffffffffff1681526020019081526020016000205490506000611d8c600954600854610ece565b90506000611da183611d9c61136a565b6121b1565b90506000611dbb606483611db59190612a34565b84610ece565b9050670de0b6b3a764000081611dd19190612a03565b945050505050919050565b60026000541415611e22576040517f08c379a0000000000000000000000000000000000000000000000000000000008152600401611e199061294b565b60405180910390fd5b600260008190555060003411611e6d576040517f08c379a0000000000000000000000000000000000000000000000000000000008152600401611e64906128eb565b60405180910390fd5b60003490506000600360003373ffffffffffffffffffffffffffffffffffffffff1673ffffffffffffffffffffffffffffffffffffffff168152602001908152602001600020541415611ec457611ec3336123cc565b5b6000611ed2600a5483610ece565b90508082611ee09190612a8e565b600360003373ffffffffffffffffffffffffffffffffffffffff1673ffffffffffffffffffffffffffffffffffffffff16815260200190815260200160002054611f2a91906129ad565b600360003373ffffffffffffffffffffffffffffffffffffffff1673ffffffffffffffffffffffffffffffffffffffff168152602001908152602001600020819055506000600660009054906101000a900473ffffffffffffffffffffffffffffffffffffffff1673ffffffffffffffffffffffffffffffffffffffff1682604051611fb590612767565b60006040518083038185875af1925050503d8060008114611ff2576040519150601f19603f3d011682016040523d82523d6000602084013e611ff7565b606091505b50509050806120155781600b5461200e91906129ad565b600b819055505b5050506001600081905550565b600660009054906101000a900473ffffffffffffffffffffffffffffffffffffffff1673ffffffffffffffffffffffffffffffffffffffff163373ffffffffffffffffffffffffffffffffffffffff161461207c57600080fd5b8061271010156120c1576040517f08c379a00000000000000000000000000000000000000000000000000000000081526004016120b89061292b565b60405180910390fd5b6064816120ce9190612a34565b600a8190555050565b60008060005b6002805490508110156121a35760028181548110612124577f4e487b7100000000000000000000000000000000000000000000000000000000600052603260045260246000fd5b9060005260206000200160009054906101000a900473ffffffffffffffffffffffffffffffffffffffff1673ffffffffffffffffffffffffffffffffffffffff168473ffffffffffffffffffffffffffffffffffffffff16141561218f5760018192509250506121ac565b60018161219c91906129ad565b90506120dd565b50600080915091505b915091565b6000816064670de0b6b3a76400006121c99190612a34565b846121d49190612a34565b6121de9190612a03565b905092915050565b600560009054906101000a900473ffffffffffffffffffffffffffffffffffffffff1681565b6002818154811061221c57600080fd5b906000526020600020016000915054906101000a900473ffffffffffffffffffffffffffffffffffffffff1681565b600080612257836120d7565b9150915081156123c757600260016002805490506122759190612a8e565b815481106122ac577f4e487b7100000000000000000000000000000000000000000000000000000000600052603260045260246000fd5b9060005260206000200160009054906101000a900473ffffffffffffffffffffffffffffffffffffffff1660028281548110612311577f4e487b7100000000000000000000000000000000000000000000000000000000600052603260045260246000fd5b9060005260206000200160006101000a81548173ffffffffffffffffffffffffffffffffffffffff021916908373ffffffffffffffffffffffffffffffffffffffff1602179055506002805480612391577f4e487b7100000000000000000000000000000000000000000000000000000000600052603160045260246000fd5b6001900381819060005260206000200160006101000a81549073ffffffffffffffffffffffffffffffffffffffff021916905590555b505050565b60006123d7826120d7565b50905080612443576002829080600181540180825580915050600190039060005260206000200160009091909190916101000a81548173ffffffffffffffffffffffffffffffffffffffff021916908373ffffffffffffffffffffffffffffffffffffffff1602179055505b5050565b60008135905061245681612e02565b92915050565b60008151905061246b81612e19565b92915050565b60008135905061248081612e30565b92915050565b60008151905061249581612e30565b92915050565b6000602082840312156124ad57600080fd5b60006124bb84828501612447565b91505092915050565b600080604083850312156124d757600080fd5b60006124e585828601612447565b92505060206124f685828601612471565b9150509250929050565b60006020828403121561251257600080fd5b60006125208482850161245c565b91505092915050565b60006020828403121561253b57600080fd5b600061254984828501612471565b91505092915050565b60006020828403121561256457600080fd5b600061257284828501612486565b91505092915050565b6000806040838503121561258e57600080fd5b600061259c85828601612471565b92505060206125ad85828601612471565b9150509250929050565b6125c081612ac2565b82525050565b6125cf81612ad4565b82525050565b6125de81612b0a565b82525050565b60006125ef82612986565b6125f9818561299c565b9350612609818560208601612b1c565b61261281612c0e565b840191505092915050565b600061262a602b8361299c565b915061263582612c1f565b604082019050919050565b600061264d602f8361299c565b915061265882612c6e565b604082019050919050565b600061267060228361299c565b915061267b82612cbd565b604082019050919050565b600061269360238361299c565b915061269e82612d0c565b604082019050919050565b60006126b660188361299c565b91506126c182612d5b565b602082019050919050565b60006126d9600083612991565b91506126e482612d84565b600082019050919050565b60006126fc60158361299c565b915061270782612d87565b602082019050919050565b600061271f60108361299c565b915061272a82612db0565b602082019050919050565b6000612742601f8361299c565b915061274d82612dd9565b602082019050919050565b61276181612b00565b82525050565b6000612772826126cc565b9150819050919050565b600060208201905061279160008301846125b7565b92915050565b60006060820190506127ac60008301866125b7565b6127b960208301856125b7565b6127c66040830184612758565b949350505050565b60006040820190506127e360008301856125b7565b6127f060208301846125d5565b9392505050565b600060408201905061280c60008301856125b7565b6128196020830184612758565b9392505050565b600060408201905061283560008301856125c6565b6128426020830184612758565b9392505050565b6000602082019050818103600083015261286381846125e4565b905092915050565b600060208201905081810360008301526128848161261d565b9050919050565b600060208201905081810360008301526128a481612640565b9050919050565b600060208201905081810360008301526128c481612663565b9050919050565b600060208201905081810360008301526128e481612686565b9050919050565b60006020820190508181036000830152612904816126a9565b9050919050565b60006020820190508181036000830152612924816126ef565b9050919050565b6000602082019050818103600083015261294481612712565b9050919050565b6000602082019050818103600083015261296481612735565b9050919050565b60006020820190506129806000830184612758565b92915050565b600081519050919050565b600081905092915050565b600082825260208201905092915050565b60006129b882612b00565b91506129c383612b00565b9250827fffffffffffffffffffffffffffffffffffffffffffffffffffffffffffffffff038211156129f8576129f7612b81565b5b828201905092915050565b6000612a0e82612b00565b9150612a1983612b00565b925082612a2957612a28612bb0565b5b828204905092915050565b6000612a3f82612b00565b9150612a4a83612b00565b9250817fffffffffffffffffffffffffffffffffffffffffffffffffffffffffffffffff0483118215151615612a8357612a82612b81565b5b828202905092915050565b6000612a9982612b00565b9150612aa483612b00565b925082821015612ab757612ab6612b81565b5b828203905092915050565b6000612acd82612ae0565b9050919050565b60008115159050919050565b600073ffffffffffffffffffffffffffffffffffffffff82169050919050565b6000819050919050565b6000612b1582612b00565b9050919050565b60005b83811015612b3a578082015181840152602081019050612b1f565b83811115612b49576000848401525b50505050565b60006002820490506001821680612b6757607f821691505b60208210811415612b7b57612b7a612bdf565b5b50919050565b7f4e487b7100000000000000000000000000000000000000000000000000000000600052601160045260246000fd5b7f4e487b7100000000000000000000000000000000000000000000000000000000600052601260045260246000fd5b7f4e487b7100000000000000000000000000000000000000000000000000000000600052602260045260246000fd5b6000601f19601f8301169050919050565b7f54686520636f6e747261637473207265776172642062616c616e63652063616e60008201527f6e6f74206265207a65726f000000000000000000000000000000000000000000602082015250565b7f416e20616d6f756e74206d75737420626520706173736564207468726f75676860008201527f20617320616e20617267756d656e740000000000000000000000000000000000602082015250565b7f596f7572207265776172642062616c616e63652063616e6e6f74206265207a6560008201527f726f000000000000000000000000000000000000000000000000000000000000602082015250565b7f596f7572207374616b696e672062616c616e63652063616e6e6f74206265207a60008201527f65726f0000000000000000000000000000000000000000000000000000000000602082015250565b7f4d61746963206e6565647320746f206265207374616b65640000000000000000600082015250565b50565b7f446973747269627574696f6e204f766572666c6f770000000000000000000000600082015250565b7f4465706f736974204f766572666c6f7700000000000000000000000000000000600082015250565b7f5265656e7472616e637947756172643a207265656e7472616e742063616c6c00600082015250565b612e0b81612ac2565b8114612e1657600080fd5b50565b612e2281612ad4565b8114612e2d57600080fd5b50565b612e3981612b00565b8114612e4457600080fd5b5056fea26469706673582212200248d0c6955f5a5041b1dad983ac860909116a1cba36971a1ecd4f92bcf412d064736f6c63430008040033414553205374616b696e6720506f6f6c20287265636569766520457468657229205632",
  "linkReferences": {},
  "deployedLinkReferences": {}
}