{
  "_format": "hh-sol-artifact-1",
  "contractName": "AESPoolrTokenV2",
  "sourceName": "contracts/AESrTokenv2.sol",
  "abi": [
    {
      "inputs": [],
      "stateMutability": "nonpayable",
      "type": "constructor"
    },
    {
      "anonymous": false,
      "inputs": [
        {
          "indexed": false,
          "internalType": "address",
          "name": "user",
          "type": "address"
        },
        {
          "indexed": false,
          "internalType": "uint256",
          "name": "value",
          "type": "uint256"
        }
      ],
      "name": "WithdrawFail",
      "type": "event"
    },
    {
      "inputs": [],
      "name": "APR",
      "outputs": [
        {
          "internalType": "uint256",
          "name": "",
          "type": "uint256"
        }
      ],
      "stateMutability": "view",
      "type": "function"
    },
    {
      "inputs": [
        {
          "internalType": "uint256",
          "name": "_percent",
          "type": "uint256"
        },
        {
          "internalType": "uint256",
          "name": "_number",
          "type": "uint256"
        }
      ],
      "name": "FindPercentage",
      "outputs": [
        {
          "internalType": "uint256",
          "name": "result",
          "type": "uint256"
        }
      ],
      "stateMutability": "pure",
      "type": "function"
    },
    {
      "inputs": [
        {
          "internalType": "uint256",
          "name": "_a",
          "type": "uint256"
        },
        {
          "internalType": "uint256",
          "name": "_b",
          "type": "uint256"
        }
      ],
      "name": "FindPercentageOfAinB",
      "outputs": [
        {
          "internalType": "uint256",
          "name": "result",
          "type": "uint256"
        }
      ],
      "stateMutability": "pure",
      "type": "function"
    },
    {
      "inputs": [
        {
          "internalType": "uint256",
          "name": "amount",
          "type": "uint256"
        }
      ],
      "name": "Stake",
      "outputs": [],
      "stateMutability": "payable",
      "type": "function"
    },
    {
      "inputs": [
        {
          "internalType": "address",
          "name": "_stakeholder",
          "type": "address"
        }
      ],
      "name": "calculateReward",
      "outputs": [
        {
          "internalType": "uint256",
          "name": "",
          "type": "uint256"
        }
      ],
      "stateMutability": "view",
      "type": "function"
    },
    {
      "inputs": [
        {
          "internalType": "uint256",
          "name": "percent",
          "type": "uint256"
        }
      ],
      "name": "changeDepositFee",
      "outputs": [],
      "stateMutability": "nonpayable",
      "type": "function"
    },
    {
      "inputs": [
        {
          "internalType": "uint256",
          "name": "percent",
          "type": "uint256"
        }
      ],
      "name": "changeDistributionPercentage",
      "outputs": [],
      "stateMutability": "nonpayable",
      "type": "function"
    },
    {
      "inputs": [],
      "name": "custodian",
      "outputs": [
        {
          "internalType": "address",
          "name": "",
          "type": "address"
        }
      ],
      "stateMutability": "view",
      "type": "function"
    },
    {
      "inputs": [],
      "name": "custodianFees",
      "outputs": [
        {
          "internalType": "uint256",
          "name": "",
          "type": "uint256"
        }
      ],
      "stateMutability": "view",
      "type": "function"
    },
    {
      "inputs": [],
      "name": "depositFee",
      "outputs": [
        {
          "internalType": "uint256",
          "name": "",
          "type": "uint256"
        }
      ],
      "stateMutability": "view",
      "type": "function"
    },
    {
      "inputs": [
        {
          "internalType": "uint256",
          "name": "amount",
          "type": "uint256"
        }
      ],
      "name": "depositRewards",
      "outputs": [],
      "stateMutability": "nonpayable",
      "type": "function"
    },
    {
      "inputs": [],
      "name": "distributeRewards",
      "outputs": [],
      "stateMutability": "nonpayable",
      "type": "function"
    },
    {
      "inputs": [],
      "name": "distributionPercentage",
      "outputs": [
        {
          "internalType": "uint256",
          "name": "",
          "type": "uint256"
        }
      ],
      "stateMutability": "view",
      "type": "function"
    },
    {
      "inputs": [
        {
          "internalType": "address",
          "name": "_address",
          "type": "address"
        }
      ],
      "name": "isStakeholder",
      "outputs": [
        {
          "internalType": "bool",
          "name": "",
          "type": "bool"
        },
        {
          "internalType": "uint256",
          "name": "",
          "type": "uint256"
        }
      ],
      "stateMutability": "view",
      "type": "function"
    },
    {
      "inputs": [],
      "name": "name",
      "outputs": [
        {
          "internalType": "string",
          "name": "",
          "type": "string"
        }
      ],
      "stateMutability": "view",
      "type": "function"
    },
    {
      "inputs": [],
      "name": "removeStake",
      "outputs": [],
      "stateMutability": "nonpayable",
      "type": "function"
    },
    {
      "inputs": [
        {
          "internalType": "uint256",
          "name": "amount",
          "type": "uint256"
        }
      ],
      "name": "resetCustodianFees",
      "outputs": [],
      "stateMutability": "nonpayable",
      "type": "function"
    },
    {
      "inputs": [
        {
          "internalType": "address",
          "name": "addr",
          "type": "address"
        },
        {
          "internalType": "uint256",
          "name": "amount",
          "type": "uint256"
        }
      ],
      "name": "resetReward",
      "outputs": [],
      "stateMutability": "nonpayable",
      "type": "function"
    },
    {
      "inputs": [
        {
          "internalType": "address",
          "name": "_stakeholder",
          "type": "address"
        }
      ],
      "name": "rewardOf",
      "outputs": [
        {
          "internalType": "uint256",
          "name": "",
          "type": "uint256"
        }
      ],
      "stateMutability": "view",
      "type": "function"
    },
    {
      "inputs": [],
      "name": "rewardToken",
      "outputs": [
        {
          "internalType": "address",
          "name": "",
          "type": "address"
        }
      ],
      "stateMutability": "view",
      "type": "function"
    },
    {
      "inputs": [],
      "name": "rewardTokenHoldingAmount",
      "outputs": [
        {
          "internalType": "uint256",
          "name": "",
          "type": "uint256"
        }
      ],
      "stateMutability": "view",
      "type": "function"
    },
    {
      "inputs": [
        {
          "internalType": "address",
          "name": "",
          "type": "address"
        }
      ],
      "name": "rewards",
      "outputs": [
        {
          "internalType": "uint256",
          "name": "",
          "type": "uint256"
        }
      ],
      "stateMutability": "view",
      "type": "function"
    },
    {
      "inputs": [
        {
          "internalType": "uint256",
          "name": "amount",
          "type": "uint256"
        }
      ],
      "name": "setAPR",
      "outputs": [],
      "stateMutability": "nonpayable",
      "type": "function"
    },
    {
      "inputs": [
        {
          "internalType": "address",
          "name": "addr",
          "type": "address"
        }
      ],
      "name": "setRewardTokenAddress",
      "outputs": [],
      "stateMutability": "nonpayable",
      "type": "function"
    },
    {
      "inputs": [
        {
          "internalType": "address",
          "name": "addr",
          "type": "address"
        }
      ],
      "name": "setStakingTokenAddress",
      "outputs": [],
      "stateMutability": "nonpayable",
      "type": "function"
    },
    {
      "inputs": [
        {
          "internalType": "address",
          "name": "_stakeholder",
          "type": "address"
        }
      ],
      "name": "stakeOf",
      "outputs": [
        {
          "internalType": "uint256",
          "name": "",
          "type": "uint256"
        }
      ],
      "stateMutability": "view",
      "type": "function"
    },
    {
      "inputs": [
        {
          "internalType": "uint256",
          "name": "",
          "type": "uint256"
        }
      ],
      "name": "stakers",
      "outputs": [
        {
          "internalType": "address",
          "name": "",
          "type": "address"
        }
      ],
      "stateMutability": "view",
      "type": "function"
    },
    {
      "inputs": [
        {
          "internalType": "address",
          "name": "",
          "type": "address"
        }
      ],
      "name": "stakingBalance",
      "outputs": [
        {
          "internalType": "uint256",
          "name": "",
          "type": "uint256"
        }
      ],
      "stateMutability": "view",
      "type": "function"
    },
    {
      "inputs": [],
      "name": "stakingToken",
      "outputs": [
        {
          "internalType": "address",
          "name": "",
          "type": "address"
        }
      ],
      "stateMutability": "view",
      "type": "function"
    },
    {
      "inputs": [],
      "name": "totalRewards",
      "outputs": [
        {
          "internalType": "uint256",
          "name": "",
          "type": "uint256"
        }
      ],
      "stateMutability": "view",
      "type": "function"
    },
    {
      "inputs": [],
      "name": "totalStakes",
      "outputs": [
        {
          "internalType": "uint256",
          "name": "",
          "type": "uint256"
        }
      ],
      "stateMutability": "view",
      "type": "function"
    },
    {
      "inputs": [],
      "name": "withdrawFees",
      "outputs": [],
      "stateMutability": "nonpayable",
      "type": "function"
    },
    {
      "inputs": [],
      "name": "withdrawReward",
      "outputs": [],
      "stateMutability": "nonpayable",
      "type": "function"
    },
    {
      "inputs": [],
      "name": "withdrawRewards",
      "outputs": [],
      "stateMutability": "nonpayable",
      "type": "function"
    },
    {
      "stateMutability": "payable",
      "type": "receive"
    }
  ],
  "bytecode": "0x60806040526040518060600160405280602381526020016200349760239139600190805190602001906200003592919062000167565b50735ac3ceee2c3e6790cadd6707deb2e87ea83b0631600560006101000a81548173ffffffffffffffffffffffffffffffffffffffff021916908373ffffffffffffffffffffffffffffffffffffffff1602179055506000600755670de0b6b3a76400006000620000a7919062000217565b600855735ac3ceee2c3e6790cadd6707deb2e87ea83b0631600960006101000a81548173ffffffffffffffffffffffffffffffffffffffff021916908373ffffffffffffffffffffffffffffffffffffffff1602179055506001600a556101f4600b553480156200011757600080fd5b50600160008190555033600660006101000a81548173ffffffffffffffffffffffffffffffffffffffff021916908373ffffffffffffffffffffffffffffffffffffffff16021790555062000316565b828054620001759062000282565b90600052602060002090601f016020900481019282620001995760008555620001e5565b82601f10620001b457805160ff1916838001178555620001e5565b82800160010185558215620001e5579182015b82811115620001e4578251825591602001919060010190620001c7565b5b509050620001f49190620001f8565b5090565b5b8082111562000213576000816000905550600101620001f9565b5090565b6000620002248262000278565b9150620002318362000278565b9250817fffffffffffffffffffffffffffffffffffffffffffffffffffffffffffffffff04831182151516156200026d576200026c620002b8565b5b828202905092915050565b6000819050919050565b600060028204905060018216806200029b57607f821691505b60208210811415620002b257620002b1620002e7565b5b50919050565b7f4e487b7100000000000000000000000000000000000000000000000000000000600052601160045260246000fd5b7f4e487b7100000000000000000000000000000000000000000000000000000000600052602260045260246000fd5b61317180620003266000396000f3fe6080604052600436106101fd5760003560e01c80638bdf67f21161010d578063c18e9f48116100a0578063e88d95671161006f578063e88d9567146107d2578063ef037b90146107fb578063f0102fae14610839578063f7c618c114610876578063fd5e6dd1146108a157610303565b8063c18e9f481461073e578063c7b8981c14610767578063c885bc581461077e578063d82e39621461079557610303565b80639a6acf20116100dc5780639a6acf20146106a85780639c91b779146106d1578063bd30558e146106e8578063bf9befb11461071357610303565b80638bdf67f2146106005780638dd9bae31461062957806390872cc014610654578063983784851461067f57610303565b8063426233601161019057806367a527931161015f57806367a527931461052d5780636f4a2cd01461055857806372f702f31461056f5780638068b9a31461059a578063854303cf146105d757610303565b8063426233601461047357806345bc78ab146104b0578063476343ee146104ed5780635c73395e1461050457610303565b80631d62ebd9116101cc5780631d62ebd9146103c4578063227a473b146104015780632c878c681461041d578063375b74c31461044857610303565b806306fdde03146103085780630700037d146103335780630cc6ec1c146103705780630e15561a1461039957610303565b366103035760026000541415610248576040517f08c379a000000000000000000000000000000000000000000000000000000000815260040161023f90612c68565b60405180910390fd5b60026000819055506000600660009054906101000a900473ffffffffffffffffffffffffffffffffffffffff1673ffffffffffffffffffffffffffffffffffffffff163460405161029890612aa4565b60006040518083038185875af1925050503d80600081146102d5576040519150601f19603f3d011682016040523d82523d6000602084013e6102da565b606091505b50509050806102f85734600c546102f19190612cca565b600c819055505b506001600081905550005b600080fd5b34801561031457600080fd5b5061031d6108de565b60405161032a9190612b86565b60405180910390f35b34801561033f57600080fd5b5061035a600480360381019061035591906127fb565b61096c565b6040516103679190612c88565b60405180910390f35b34801561037c57600080fd5b5061039760048036038101906103929190612889565b610984565b005b3480156103a557600080fd5b506103ae6109e8565b6040516103bb9190612c88565b60405180910390f35b3480156103d057600080fd5b506103eb60048036038101906103e691906127fb565b610acc565b6040516103f89190612c88565b60405180910390f35b61041b60048036038101906104169190612889565b610b15565b005b34801561042957600080fd5b50610432610e62565b60405161043f9190612c88565b60405180910390f35b34801561045457600080fd5b5061045d610e68565b60405161046a9190612ab9565b60405180910390f35b34801561047f57600080fd5b5061049a600480360381019061049591906127fb565b610e8e565b6040516104a79190612c88565b60405180910390f35b3480156104bc57600080fd5b506104d760048036038101906104d291906127fb565b610ed7565b6040516104e49190612c88565b60405180910390f35b3480156104f957600080fd5b50610502610eef565b005b34801561051057600080fd5b5061052b60048036038101906105269190612889565b611041565b005b34801561053957600080fd5b506105426110f6565b60405161054f9190612c88565b60405180910390f35b34801561056457600080fd5b5061056d6110fc565b005b34801561057b57600080fd5b50610584611297565b6040516105919190612ab9565b60405180910390f35b3480156105a657600080fd5b506105c160048036038101906105bc91906128db565b6112bd565b6040516105ce9190612c88565b60405180910390f35b3480156105e357600080fd5b506105fe60048036038101906105f99190612889565b6112e0565b005b34801561060c57600080fd5b5061062760048036038101906106229190612889565b611344565b005b34801561063557600080fd5b5061063e6114b5565b60405161064b9190612c88565b60405180910390f35b34801561066057600080fd5b506106696114bb565b6040516106769190612c88565b60405180910390f35b34801561068b57600080fd5b506106a660048036038101906106a191906127fb565b6114c1565b005b3480156106b457600080fd5b506106cf60048036038101906106ca91906127fb565b61162f565b005b3480156106dd57600080fd5b506106e66116cd565b005b3480156106f457600080fd5b506106fd61190a565b60405161070a9190612c88565b60405180910390f35b34801561071f57600080fd5b50610728611910565b6040516107359190612c88565b60405180910390f35b34801561074a57600080fd5b5061076560048036038101906107609190612824565b6119f4565b005b34801561077357600080fd5b5061077c611a96565b005b34801561078a57600080fd5b50610793611f51565b005b3480156107a157600080fd5b506107bc60048036038101906107b791906127fb565b6122dd565b6040516107c99190612c88565b60405180910390f35b3480156107de57600080fd5b506107f960048036038101906107f49190612889565b612382565b005b34801561080757600080fd5b50610822600480360381019061081d91906127fb565b612437565b604051610830929190612b5d565b60405180910390f35b34801561084557600080fd5b50610860600480360381019061085b91906128db565b612511565b60405161086d9190612c88565b60405180910390f35b34801561088257600080fd5b5061088b612546565b6040516108989190612ab9565b60405180910390f35b3480156108ad57600080fd5b506108c860048036038101906108c39190612889565b61256c565b6040516108d59190612ab9565b60405180910390f35b600180546108eb90612e6c565b80601f016020809104026020016040519081016040528092919081815260200182805461091790612e6c565b80156109645780601f1061093957610100808354040283529160200191610964565b820191906000526020600020905b81548152906001019060200180831161094757829003601f168201915b505050505081565b60046020528060005260406000206000915090505481565b600660009054906101000a900473ffffffffffffffffffffffffffffffffffffffff1673ffffffffffffffffffffffffffffffffffffffff163373ffffffffffffffffffffffffffffffffffffffff16146109de57600080fd5b80600c8190555050565b6000806000905060005b600280549050811015610ac4576004600060028381548110610a3d577f4e487b7100000000000000000000000000000000000000000000000000000000600052603260045260246000fd5b9060005260206000200160009054906101000a900473ffffffffffffffffffffffffffffffffffffffff1673ffffffffffffffffffffffffffffffffffffffff1673ffffffffffffffffffffffffffffffffffffffff1681526020019081526020016000205482610aae9190612cca565b9150600181610abd9190612cca565b90506109f2565b508091505090565b6000600460008373ffffffffffffffffffffffffffffffffffffffff1673ffffffffffffffffffffffffffffffffffffffff168152602001908152602001600020549050919050565b60026000541415610b5b576040517f08c379a0000000000000000000000000000000000000000000000000000000008152600401610b5290612c68565b60405180910390fd5b6002600081905550600033905060008211610bab576040517f08c379a0000000000000000000000000000000000000000000000000000000008152600401610ba290612bc8565b60405180910390fd5b6000600960009054906101000a900473ffffffffffffffffffffffffffffffffffffffff1673ffffffffffffffffffffffffffffffffffffffff166323b872dd8330866040518463ffffffff1660e01b8152600401610c0c93929190612ad4565b602060405180830381600087803b158015610c2657600080fd5b505af1158015610c3a573d6000803e3d6000fd5b505050506040513d601f19601f82011682018060405250810190610c5e9190612860565b90508015610e55576000600360008473ffffffffffffffffffffffffffffffffffffffff1673ffffffffffffffffffffffffffffffffffffffff168152602001908152602001600020541415610cb857610cb7826125ab565b5b6000610cc6600b54856112bd565b90508084610cd49190612dab565b600360008573ffffffffffffffffffffffffffffffffffffffff1673ffffffffffffffffffffffffffffffffffffffff16815260200190815260200160002054610d1e9190612cca565b600360008573ffffffffffffffffffffffffffffffffffffffff1673ffffffffffffffffffffffffffffffffffffffff168152602001908152602001600020819055506000600960009054906101000a900473ffffffffffffffffffffffffffffffffffffffff1673ffffffffffffffffffffffffffffffffffffffff166323b872dd30600660009054906101000a900473ffffffffffffffffffffffffffffffffffffffff16856040518463ffffffff1660e01b8152600401610de493929190612ad4565b602060405180830381600087803b158015610dfe57600080fd5b505af1158015610e12573d6000803e3d6000fd5b505050506040513d601f19601f82011682018060405250810190610e369190612860565b905080610e525781600c54610e4b9190612cca565b600c819055505b50505b5050600160008190555050565b60085481565b600660009054906101000a900473ffffffffffffffffffffffffffffffffffffffff1681565b6000600360008373ffffffffffffffffffffffffffffffffffffffff1673ffffffffffffffffffffffffffffffffffffffff168152602001908152602001600020549050919050565b60036020528060005260406000206000915090505481565b60026000541415610f35576040517f08c379a0000000000000000000000000000000000000000000000000000000008152600401610f2c90612c68565b60405180910390fd5b6002600081905550600660009054906101000a900473ffffffffffffffffffffffffffffffffffffffff1673ffffffffffffffffffffffffffffffffffffffff163373ffffffffffffffffffffffffffffffffffffffff1614610f9757600080fd5b6000600660009054906101000a900473ffffffffffffffffffffffffffffffffffffffff1673ffffffffffffffffffffffffffffffffffffffff16600c54604051610fe190612aa4565b60006040518083038185875af1925050503d806000811461101e576040519150601f19603f3d011682016040523d82523d6000602084013e611023565b606091505b505090508015611036576000600c819055505b506001600081905550565b600660009054906101000a900473ffffffffffffffffffffffffffffffffffffffff1673ffffffffffffffffffffffffffffffffffffffff163373ffffffffffffffffffffffffffffffffffffffff161461109b57600080fd5b8061271010156110e0576040517f08c379a00000000000000000000000000000000000000000000000000000000081526004016110d790612c28565b60405180910390fd5b6064816110ed9190612d51565b600a8190555050565b600b5481565b600660009054906101000a900473ffffffffffffffffffffffffffffffffffffffff1673ffffffffffffffffffffffffffffffffffffffff163373ffffffffffffffffffffffffffffffffffffffff161461115657600080fd5b60005b600280549050811015611294576000600282815481106111a2577f4e487b7100000000000000000000000000000000000000000000000000000000600052603260045260246000fd5b9060005260206000200160009054906101000a900473ffffffffffffffffffffffffffffffffffffffff16905060006111da826122dd565b905080600460008473ffffffffffffffffffffffffffffffffffffffff1673ffffffffffffffffffffffffffffffffffffffff168152602001908152602001600020546112279190612cca565b600460008473ffffffffffffffffffffffffffffffffffffffff1673ffffffffffffffffffffffffffffffffffffffff16815260200190815260200160002081905550806008546112789190612dab565b600881905550505060018161128d9190612cca565b9050611159565b50565b600960009054906101000a900473ffffffffffffffffffffffffffffffffffffffff1681565b600061271083836112ce9190612d51565b6112d89190612d20565b905092915050565b600660009054906101000a900473ffffffffffffffffffffffffffffffffffffffff1673ffffffffffffffffffffffffffffffffffffffff163373ffffffffffffffffffffffffffffffffffffffff161461133a57600080fd5b8060078190555050565b600660009054906101000a900473ffffffffffffffffffffffffffffffffffffffff1673ffffffffffffffffffffffffffffffffffffffff163373ffffffffffffffffffffffffffffffffffffffff161461139e57600080fd5b600081116113e1576040517f08c379a00000000000000000000000000000000000000000000000000000000081526004016113d890612bc8565b60405180910390fd5b6000600560009054906101000a900473ffffffffffffffffffffffffffffffffffffffff1673ffffffffffffffffffffffffffffffffffffffff166323b872dd3330856040518463ffffffff1660e01b815260040161144293929190612ad4565b602060405180830381600087803b15801561145c57600080fd5b505af1158015611470573d6000803e3d6000fd5b505050506040513d601f19601f820116820180604052508101906114949190612860565b905080156114b157816008546114aa9190612cca565b6008819055505b5050565b600c5481565b600a5481565b600660009054906101000a900473ffffffffffffffffffffffffffffffffffffffff1673ffffffffffffffffffffffffffffffffffffffff163373ffffffffffffffffffffffffffffffffffffffff161461151b57600080fd5b80600960006101000a81548173ffffffffffffffffffffffffffffffffffffffff021916908373ffffffffffffffffffffffffffffffffffffffff160217905550600960009054906101000a900473ffffffffffffffffffffffffffffffffffffffff1673ffffffffffffffffffffffffffffffffffffffff1663095ea7b3307fffffffffffffffffffffffffffffffffffffffffffffffffffffffffffffffff6040518363ffffffff1660e01b81526004016115d9929190612b34565b602060405180830381600087803b1580156115f357600080fd5b505af1158015611607573d6000803e3d6000fd5b505050506040513d601f19601f8201168201806040525081019061162b9190612860565b5050565b600660009054906101000a900473ffffffffffffffffffffffffffffffffffffffff1673ffffffffffffffffffffffffffffffffffffffff163373ffffffffffffffffffffffffffffffffffffffff161461168957600080fd5b80600560006101000a81548173ffffffffffffffffffffffffffffffffffffffff021916908373ffffffffffffffffffffffffffffffffffffffff16021790555050565b60026000541415611713576040517f08c379a000000000000000000000000000000000000000000000000000000000815260040161170a90612c68565b60405180910390fd5b600260008190555060003390506000600360008373ffffffffffffffffffffffffffffffffffffffff1673ffffffffffffffffffffffffffffffffffffffff168152602001908152602001600020549050600081116117a7576040517f08c379a000000000000000000000000000000000000000000000000000000000815260040161179e90612c08565b60405180910390fd5b6000600360008473ffffffffffffffffffffffffffffffffffffffff1673ffffffffffffffffffffffffffffffffffffffff168152602001908152602001600020819055506117f582612626565b6000600960009054906101000a900473ffffffffffffffffffffffffffffffffffffffff1673ffffffffffffffffffffffffffffffffffffffff166323b872dd3085856040518463ffffffff1660e01b815260040161185693929190612ad4565b602060405180830381600087803b15801561187057600080fd5b505af1158015611884573d6000803e3d6000fd5b505050506040513d601f19601f820116820180604052508101906118a89190612860565b9050806118fd5781600c546118bd9190612cca565b600c819055507f67079857ed5dbe37f84d8b9a528567e7fa47512439b74fb1f7c7d9b76ab4a34e83836040516118f4929190612b34565b60405180910390a15b5050506001600081905550565b60075481565b6000806000905060005b6002805490508110156119ec576003600060028381548110611965577f4e487b7100000000000000000000000000000000000000000000000000000000600052603260045260246000fd5b9060005260206000200160009054906101000a900473ffffffffffffffffffffffffffffffffffffffff1673ffffffffffffffffffffffffffffffffffffffff1673ffffffffffffffffffffffffffffffffffffffff16815260200190815260200160002054826119d69190612cca565b91506001816119e59190612cca565b905061191a565b508091505090565b600660009054906101000a900473ffffffffffffffffffffffffffffffffffffffff1673ffffffffffffffffffffffffffffffffffffffff163373ffffffffffffffffffffffffffffffffffffffff1614611a4e57600080fd5b80600460008473ffffffffffffffffffffffffffffffffffffffff1673ffffffffffffffffffffffffffffffffffffffff168152602001908152602001600020819055505050565b600660009054906101000a900473ffffffffffffffffffffffffffffffffffffffff1673ffffffffffffffffffffffffffffffffffffffff163373ffffffffffffffffffffffffffffffffffffffff1614611af057600080fd5b60026000541415611b36576040517f08c379a0000000000000000000000000000000000000000000000000000000008152600401611b2d90612c68565b60405180910390fd5b60026000819055506000600560009054906101000a900473ffffffffffffffffffffffffffffffffffffffff1673ffffffffffffffffffffffffffffffffffffffff166370a08231306040518263ffffffff1660e01b8152600401611b9b9190612ab9565b60206040518083038186803b158015611bb357600080fd5b505afa158015611bc7573d6000803e3d6000fd5b505050506040513d601f19601f82011682018060405250810190611beb91906128b2565b905060008111611c30576040517f08c379a0000000000000000000000000000000000000000000000000000000008152600401611c2790612ba8565b60405180910390fd5b600560009054906101000a900473ffffffffffffffffffffffffffffffffffffffff1673ffffffffffffffffffffffffffffffffffffffff1663095ea7b33060006040518363ffffffff1660e01b8152600401611c8e929190612b0b565b602060405180830381600087803b158015611ca857600080fd5b505af1158015611cbc573d6000803e3d6000fd5b505050506040513d601f19601f82011682018060405250810190611ce09190612860565b50600560009054906101000a900473ffffffffffffffffffffffffffffffffffffffff1673ffffffffffffffffffffffffffffffffffffffff1663095ea7b330836040518363ffffffff1660e01b8152600401611d3e929190612b34565b602060405180830381600087803b158015611d5857600080fd5b505af1158015611d6c573d6000803e3d6000fd5b505050506040513d601f19601f82011682018060405250810190611d909190612860565b506000600560009054906101000a900473ffffffffffffffffffffffffffffffffffffffff1673ffffffffffffffffffffffffffffffffffffffff166323b872dd30600660009054906101000a900473ffffffffffffffffffffffffffffffffffffffff16856040518463ffffffff1660e01b8152600401611e1493929190612ad4565b602060405180830381600087803b158015611e2e57600080fd5b505af1158015611e42573d6000803e3d6000fd5b505050506040513d601f19601f82011682018060405250810190611e669190612860565b90508015611f4557600060088190555060005b600280549050811015611f435760006004600060028481548110611ec6577f4e487b7100000000000000000000000000000000000000000000000000000000600052603260045260246000fd5b9060005260206000200160009054906101000a900473ffffffffffffffffffffffffffffffffffffffff1673ffffffffffffffffffffffffffffffffffffffff1673ffffffffffffffffffffffffffffffffffffffff16815260200190815260200160002081905550600181611f3c9190612cca565b9050611e79565b505b50506001600081905550565b60026000541415611f97576040517f08c379a0000000000000000000000000000000000000000000000000000000008152600401611f8e90612c68565b60405180910390fd5b600260008190555060003390506000600460008373ffffffffffffffffffffffffffffffffffffffff1673ffffffffffffffffffffffffffffffffffffffff1681526020019081526020016000205490506000811161202b576040517f08c379a000000000000000000000000000000000000000000000000000000000815260040161202290612be8565b60405180910390fd5b6000600460008473ffffffffffffffffffffffffffffffffffffffff1673ffffffffffffffffffffffffffffffffffffffff16815260200190815260200160002081905550600560009054906101000a900473ffffffffffffffffffffffffffffffffffffffff1673ffffffffffffffffffffffffffffffffffffffff1663095ea7b33060006040518363ffffffff1660e01b81526004016120ce929190612b0b565b602060405180830381600087803b1580156120e857600080fd5b505af11580156120fc573d6000803e3d6000fd5b505050506040513d601f19601f820116820180604052508101906121209190612860565b50600560009054906101000a900473ffffffffffffffffffffffffffffffffffffffff1673ffffffffffffffffffffffffffffffffffffffff1663095ea7b330836040518363ffffffff1660e01b815260040161217e929190612b34565b602060405180830381600087803b15801561219857600080fd5b505af11580156121ac573d6000803e3d6000fd5b505050506040513d601f19601f820116820180604052508101906121d09190612860565b506000600560009054906101000a900473ffffffffffffffffffffffffffffffffffffffff1673ffffffffffffffffffffffffffffffffffffffff166323b872dd3085856040518463ffffffff1660e01b815260040161223293929190612ad4565b602060405180830381600087803b15801561224c57600080fd5b505af1158015612260573d6000803e3d6000fd5b505050506040513d601f19601f820116820180604052508101906122849190612860565b9050806122d05781600460008573ffffffffffffffffffffffffffffffffffffffff1673ffffffffffffffffffffffffffffffffffffffff168152602001908152602001600020819055505b5050506001600081905550565b600080600360008473ffffffffffffffffffffffffffffffffffffffff1673ffffffffffffffffffffffffffffffffffffffff1681526020019081526020016000205490506000612332600a546008546112bd565b9050600061234783612342611910565b612511565b9050600061236160648361235b9190612d51565b846112bd565b9050670de0b6b3a7640000816123779190612d20565b945050505050919050565b600660009054906101000a900473ffffffffffffffffffffffffffffffffffffffff1673ffffffffffffffffffffffffffffffffffffffff163373ffffffffffffffffffffffffffffffffffffffff16146123dc57600080fd5b806127101015612421576040517f08c379a000000000000000000000000000000000000000000000000000000000815260040161241890612c48565b60405180910390fd5b60648161242e9190612d51565b600b8190555050565b60008060005b6002805490508110156125035760028181548110612484577f4e487b7100000000000000000000000000000000000000000000000000000000600052603260045260246000fd5b9060005260206000200160009054906101000a900473ffffffffffffffffffffffffffffffffffffffff1673ffffffffffffffffffffffffffffffffffffffff168473ffffffffffffffffffffffffffffffffffffffff1614156124ef57600181925092505061250c565b6001816124fc9190612cca565b905061243d565b50600080915091505b915091565b6000816064670de0b6b3a76400006125299190612d51565b846125349190612d51565b61253e9190612d20565b905092915050565b600560009054906101000a900473ffffffffffffffffffffffffffffffffffffffff1681565b6002818154811061257c57600080fd5b906000526020600020016000915054906101000a900473ffffffffffffffffffffffffffffffffffffffff1681565b60006125b682612437565b50905080612622576002829080600181540180825580915050600190039060005260206000200160009091909190916101000a81548173ffffffffffffffffffffffffffffffffffffffff021916908373ffffffffffffffffffffffffffffffffffffffff1602179055505b5050565b60008061263283612437565b9150915081156127a257600260016002805490506126509190612dab565b81548110612687577f4e487b7100000000000000000000000000000000000000000000000000000000600052603260045260246000fd5b9060005260206000200160009054906101000a900473ffffffffffffffffffffffffffffffffffffffff16600282815481106126ec577f4e487b7100000000000000000000000000000000000000000000000000000000600052603260045260246000fd5b9060005260206000200160006101000a81548173ffffffffffffffffffffffffffffffffffffffff021916908373ffffffffffffffffffffffffffffffffffffffff160217905550600280548061276c577f4e487b7100000000000000000000000000000000000000000000000000000000600052603160045260246000fd5b6001900381819060005260206000200160006101000a81549073ffffffffffffffffffffffffffffffffffffffff021916905590555b505050565b6000813590506127b6816130f6565b92915050565b6000815190506127cb8161310d565b92915050565b6000813590506127e081613124565b92915050565b6000815190506127f581613124565b92915050565b60006020828403121561280d57600080fd5b600061281b848285016127a7565b91505092915050565b6000806040838503121561283757600080fd5b6000612845858286016127a7565b9250506020612856858286016127d1565b9150509250929050565b60006020828403121561287257600080fd5b6000612880848285016127bc565b91505092915050565b60006020828403121561289b57600080fd5b60006128a9848285016127d1565b91505092915050565b6000602082840312156128c457600080fd5b60006128d2848285016127e6565b91505092915050565b600080604083850312156128ee57600080fd5b60006128fc858286016127d1565b925050602061290d858286016127d1565b9150509250929050565b61292081612ddf565b82525050565b61292f81612df1565b82525050565b61293e81612e27565b82525050565b600061294f82612ca3565b6129598185612cb9565b9350612969818560208601612e39565b61297281612f2b565b840191505092915050565b600061298a602b83612cb9565b915061299582612f3c565b604082019050919050565b60006129ad602f83612cb9565b91506129b882612f8b565b604082019050919050565b60006129d0602283612cb9565b91506129db82612fda565b604082019050919050565b60006129f3602383612cb9565b91506129fe82613029565b604082019050919050565b6000612a16600083612cae565b9150612a2182613078565b600082019050919050565b6000612a39601583612cb9565b9150612a448261307b565b602082019050919050565b6000612a5c601083612cb9565b9150612a67826130a4565b602082019050919050565b6000612a7f601f83612cb9565b9150612a8a826130cd565b602082019050919050565b612a9e81612e1d565b82525050565b6000612aaf82612a09565b9150819050919050565b6000602082019050612ace6000830184612917565b92915050565b6000606082019050612ae96000830186612917565b612af66020830185612917565b612b036040830184612a95565b949350505050565b6000604082019050612b206000830185612917565b612b2d6020830184612935565b9392505050565b6000604082019050612b496000830185612917565b612b566020830184612a95565b9392505050565b6000604082019050612b726000830185612926565b612b7f6020830184612a95565b9392505050565b60006020820190508181036000830152612ba08184612944565b905092915050565b60006020820190508181036000830152612bc18161297d565b9050919050565b60006020820190508181036000830152612be1816129a0565b9050919050565b60006020820190508181036000830152612c01816129c3565b9050919050565b60006020820190508181036000830152612c21816129e6565b9050919050565b60006020820190508181036000830152612c4181612a2c565b9050919050565b60006020820190508181036000830152612c6181612a4f565b9050919050565b60006020820190508181036000830152612c8181612a72565b9050919050565b6000602082019050612c9d6000830184612a95565b92915050565b600081519050919050565b600081905092915050565b600082825260208201905092915050565b6000612cd582612e1d565b9150612ce083612e1d565b9250827fffffffffffffffffffffffffffffffffffffffffffffffffffffffffffffffff03821115612d1557612d14612e9e565b5b828201905092915050565b6000612d2b82612e1d565b9150612d3683612e1d565b925082612d4657612d45612ecd565b5b828204905092915050565b6000612d5c82612e1d565b9150612d6783612e1d565b9250817fffffffffffffffffffffffffffffffffffffffffffffffffffffffffffffffff0483118215151615612da057612d9f612e9e565b5b828202905092915050565b6000612db682612e1d565b9150612dc183612e1d565b925082821015612dd457612dd3612e9e565b5b828203905092915050565b6000612dea82612dfd565b9050919050565b60008115159050919050565b600073ffffffffffffffffffffffffffffffffffffffff82169050919050565b6000819050919050565b6000612e3282612e1d565b9050919050565b60005b83811015612e57578082015181840152602081019050612e3c565b83811115612e66576000848401525b50505050565b60006002820490506001821680612e8457607f821691505b60208210811415612e9857612e97612efc565b5b50919050565b7f4e487b7100000000000000000000000000000000000000000000000000000000600052601160045260246000fd5b7f4e487b7100000000000000000000000000000000000000000000000000000000600052601260045260246000fd5b7f4e487b7100000000000000000000000000000000000000000000000000000000600052602260045260246000fd5b6000601f19601f8301169050919050565b7f54686520636f6e747261637473207265776172642062616c616e63652063616e60008201527f6e6f74206265207a65726f000000000000000000000000000000000000000000602082015250565b7f416e20616d6f756e74206d75737420626520706173736564207468726f75676860008201527f20617320616e20617267756d656e740000000000000000000000000000000000602082015250565b7f596f7572207265776172642062616c616e63652063616e6e6f74206265207a6560008201527f726f000000000000000000000000000000000000000000000000000000000000602082015250565b7f596f7572207374616b696e672062616c616e63652063616e6e6f74206265207a60008201527f65726f0000000000000000000000000000000000000000000000000000000000602082015250565b50565b7f446973747269627574696f6e204f766572666c6f770000000000000000000000600082015250565b7f4465706f736974204f766572666c6f7700000000000000000000000000000000600082015250565b7f5265656e7472616e637947756172643a207265656e7472616e742063616c6c00600082015250565b6130ff81612ddf565b811461310a57600080fd5b50565b61311681612df1565b811461312157600080fd5b50565b61312d81612e1d565b811461313857600080fd5b5056fea2646970667358221220f5baca2641af14b53dba6a583b862e61e7a5fc34c2f214803476acc9748456cf64736f6c63430008040033414553205374616b696e6720506f6f6c20287265636569766520546f6b656e29205632",
  "linkReferences": {},
  "deployedLinkReferences": {}
}